{
  "_format": "hh-sol-artifact-1",
  "contractName": "LW3Punks",
  "sourceName": "contracts/LW3Punks.sol",
  "abi": [
    {
      "inputs": [
        {
          "internalType": "string",
          "name": "baseURI",
          "type": "string"
        }
      ],
      "stateMutability": "nonpayable",
      "type": "constructor"
    },
    {
      "anonymous": false,
      "inputs": [
        {
          "indexed": true,
          "internalType": "address",
          "name": "owner",
          "type": "address"
        },
        {
          "indexed": true,
          "internalType": "address",
          "name": "approved",
          "type": "address"
        },
        {
          "indexed": true,
          "internalType": "uint256",
          "name": "tokenId",
          "type": "uint256"
        }
      ],
      "name": "Approval",
      "type": "event"
    },
    {
      "anonymous": false,
      "inputs": [
        {
          "indexed": true,
          "internalType": "address",
          "name": "owner",
          "type": "address"
        },
        {
          "indexed": true,
          "internalType": "address",
          "name": "operator",
          "type": "address"
        },
        {
          "indexed": false,
          "internalType": "bool",
          "name": "approved",
          "type": "bool"
        }
      ],
      "name": "ApprovalForAll",
      "type": "event"
    },
    {
      "anonymous": false,
      "inputs": [
        {
          "indexed": true,
          "internalType": "address",
          "name": "previousOwner",
          "type": "address"
        },
        {
          "indexed": true,
          "internalType": "address",
          "name": "newOwner",
          "type": "address"
        }
      ],
      "name": "OwnershipTransferred",
      "type": "event"
    },
    {
      "anonymous": false,
      "inputs": [
        {
          "indexed": true,
          "internalType": "address",
          "name": "from",
          "type": "address"
        },
        {
          "indexed": true,
          "internalType": "address",
          "name": "to",
          "type": "address"
        },
        {
          "indexed": true,
          "internalType": "uint256",
          "name": "tokenId",
          "type": "uint256"
        }
      ],
      "name": "Transfer",
      "type": "event"
    },
    {
      "stateMutability": "payable",
      "type": "fallback"
    },
    {
      "inputs": [],
      "name": "_baseTokenURI",
      "outputs": [
        {
          "internalType": "string",
          "name": "",
          "type": "string"
        }
      ],
      "stateMutability": "view",
      "type": "function"
    },
    {
      "inputs": [],
      "name": "_paused",
      "outputs": [
        {
          "internalType": "bool",
          "name": "",
          "type": "bool"
        }
      ],
      "stateMutability": "view",
      "type": "function"
    },
    {
      "inputs": [
        {
          "internalType": "address",
          "name": "to",
          "type": "address"
        },
        {
          "internalType": "uint256",
          "name": "tokenId",
          "type": "uint256"
        }
      ],
      "name": "approve",
      "outputs": [],
      "stateMutability": "nonpayable",
      "type": "function"
    },
    {
      "inputs": [
        {
          "internalType": "address",
          "name": "owner",
          "type": "address"
        }
      ],
      "name": "balanceOf",
      "outputs": [
        {
          "internalType": "uint256",
          "name": "",
          "type": "uint256"
        }
      ],
      "stateMutability": "view",
      "type": "function"
    },
    {
      "inputs": [
        {
          "internalType": "uint256",
          "name": "tokenId",
          "type": "uint256"
        }
      ],
      "name": "getApproved",
      "outputs": [
        {
          "internalType": "address",
          "name": "",
          "type": "address"
        }
      ],
      "stateMutability": "view",
      "type": "function"
    },
    {
      "inputs": [
        {
          "internalType": "address",
          "name": "owner",
          "type": "address"
        },
        {
          "internalType": "address",
          "name": "operator",
          "type": "address"
        }
      ],
      "name": "isApprovedForAll",
      "outputs": [
        {
          "internalType": "bool",
          "name": "",
          "type": "bool"
        }
      ],
      "stateMutability": "view",
      "type": "function"
    },
    {
      "inputs": [],
      "name": "maxTokenIds",
      "outputs": [
        {
          "internalType": "uint256",
          "name": "",
          "type": "uint256"
        }
      ],
      "stateMutability": "view",
      "type": "function"
    },
    {
      "inputs": [],
      "name": "mint",
      "outputs": [],
      "stateMutability": "payable",
      "type": "function"
    },
    {
      "inputs": [],
      "name": "name",
      "outputs": [
        {
          "internalType": "string",
          "name": "",
          "type": "string"
        }
      ],
      "stateMutability": "view",
      "type": "function"
    },
    {
      "inputs": [],
      "name": "owner",
      "outputs": [
        {
          "internalType": "address",
          "name": "",
          "type": "address"
        }
      ],
      "stateMutability": "view",
      "type": "function"
    },
    {
      "inputs": [
        {
          "internalType": "uint256",
          "name": "tokenId",
          "type": "uint256"
        }
      ],
      "name": "ownerOf",
      "outputs": [
        {
          "internalType": "address",
          "name": "",
          "type": "address"
        }
      ],
      "stateMutability": "view",
      "type": "function"
    },
    {
      "inputs": [],
      "name": "price",
      "outputs": [
        {
          "internalType": "uint256",
          "name": "",
          "type": "uint256"
        }
      ],
      "stateMutability": "view",
      "type": "function"
    },
    {
      "inputs": [],
      "name": "renounceOwnership",
      "outputs": [],
      "stateMutability": "nonpayable",
      "type": "function"
    },
    {
      "inputs": [
        {
          "internalType": "address",
          "name": "from",
          "type": "address"
        },
        {
          "internalType": "address",
          "name": "to",
          "type": "address"
        },
        {
          "internalType": "uint256",
          "name": "tokenId",
          "type": "uint256"
        }
      ],
      "name": "safeTransferFrom",
      "outputs": [],
      "stateMutability": "nonpayable",
      "type": "function"
    },
    {
      "inputs": [
        {
          "internalType": "address",
          "name": "from",
          "type": "address"
        },
        {
          "internalType": "address",
          "name": "to",
          "type": "address"
        },
        {
          "internalType": "uint256",
          "name": "tokenId",
          "type": "uint256"
        },
        {
          "internalType": "bytes",
          "name": "data",
          "type": "bytes"
        }
      ],
      "name": "safeTransferFrom",
      "outputs": [],
      "stateMutability": "nonpayable",
      "type": "function"
    },
    {
      "inputs": [
        {
          "internalType": "address",
          "name": "operator",
          "type": "address"
        },
        {
          "internalType": "bool",
          "name": "approved",
          "type": "bool"
        }
      ],
      "name": "setApprovalForAll",
      "outputs": [],
      "stateMutability": "nonpayable",
      "type": "function"
    },
    {
      "inputs": [
        {
          "internalType": "bool",
          "name": "val",
          "type": "bool"
        }
      ],
      "name": "setPaused",
      "outputs": [],
      "stateMutability": "nonpayable",
      "type": "function"
    },
    {
      "inputs": [
        {
          "internalType": "bytes4",
          "name": "interfaceId",
          "type": "bytes4"
        }
      ],
      "name": "supportsInterface",
      "outputs": [
        {
          "internalType": "bool",
          "name": "",
          "type": "bool"
        }
      ],
      "stateMutability": "view",
      "type": "function"
    },
    {
      "inputs": [],
      "name": "symbol",
      "outputs": [
        {
          "internalType": "string",
          "name": "",
          "type": "string"
        }
      ],
      "stateMutability": "view",
      "type": "function"
    },
    {
      "inputs": [
        {
          "internalType": "uint256",
          "name": "index",
          "type": "uint256"
        }
      ],
      "name": "tokenByIndex",
      "outputs": [
        {
          "internalType": "uint256",
          "name": "",
          "type": "uint256"
        }
      ],
      "stateMutability": "view",
      "type": "function"
    },
    {
      "inputs": [
        {
          "internalType": "address",
          "name": "owner",
          "type": "address"
        },
        {
          "internalType": "uint256",
          "name": "index",
          "type": "uint256"
        }
      ],
      "name": "tokenOfOwnerByIndex",
      "outputs": [
        {
          "internalType": "uint256",
          "name": "",
          "type": "uint256"
        }
      ],
      "stateMutability": "view",
      "type": "function"
    },
    {
      "inputs": [
        {
          "internalType": "uint256",
          "name": "tokenId",
          "type": "uint256"
        }
      ],
      "name": "tokenURI",
      "outputs": [
        {
          "internalType": "string",
          "name": "",
          "type": "string"
        }
      ],
      "stateMutability": "view",
      "type": "function"
    },
    {
      "inputs": [],
      "name": "totalSupply",
      "outputs": [
        {
          "internalType": "uint256",
          "name": "",
          "type": "uint256"
        }
      ],
      "stateMutability": "view",
      "type": "function"
    },
    {
      "inputs": [
        {
          "internalType": "address",
          "name": "from",
          "type": "address"
        },
        {
          "internalType": "address",
          "name": "to",
          "type": "address"
        },
        {
          "internalType": "uint256",
          "name": "tokenId",
          "type": "uint256"
        }
      ],
      "name": "transferFrom",
      "outputs": [],
      "stateMutability": "nonpayable",
      "type": "function"
    },
    {
      "inputs": [
        {
          "internalType": "address",
          "name": "newOwner",
          "type": "address"
        }
      ],
      "name": "transferOwnership",
      "outputs": [],
      "stateMutability": "nonpayable",
      "type": "function"
    },
    {
      "inputs": [],
      "name": "withdraw",
      "outputs": [],
      "stateMutability": "nonpayable",
      "type": "function"
    },
    {
      "stateMutability": "payable",
      "type": "receive"
    }
  ],
  "bytecode": "0x6080604052662386f26fc10000600e55600a600f553480156200002157600080fd5b506040516200416f3803806200416f833981810160405281019062000047919062000317565b6040518060400160405280600881526020017f4c573350756e6b730000000000000000000000000000000000000000000000008152506040518060400160405280600481526020017f4c573350000000000000000000000000000000000000000000000000000000008152508160009080519060200190620000cb929190620001f5565b508060019080519060200190620000e4929190620001f5565b50505062000107620000fb6200012760201b60201c565b6200012f60201b60201c565b80600b90805190602001906200011f929190620001f5565b5050620004cc565b600033905090565b6000600a60009054906101000a900473ffffffffffffffffffffffffffffffffffffffff16905081600a60006101000a81548173ffffffffffffffffffffffffffffffffffffffff021916908373ffffffffffffffffffffffffffffffffffffffff1602179055508173ffffffffffffffffffffffffffffffffffffffff168173ffffffffffffffffffffffffffffffffffffffff167f8be0079c531659141344cd1fd0a4f28419497f9722a3daafe3b4186f6b6457e060405160405180910390a35050565b8280546200020390620003f1565b90600052602060002090601f01602090048101928262000227576000855562000273565b82601f106200024257805160ff191683800117855562000273565b8280016001018555821562000273579182015b828111156200027257825182559160200191906001019062000255565b5b50905062000282919062000286565b5090565b5b80821115620002a157600081600090555060010162000287565b5090565b6000620002bc620002b68462000385565b6200035c565b905082815260208101848484011115620002d557600080fd5b620002e2848285620003bb565b509392505050565b600082601f830112620002fc57600080fd5b81516200030e848260208601620002a5565b91505092915050565b6000602082840312156200032a57600080fd5b600082015167ffffffffffffffff8111156200034557600080fd5b6200035384828501620002ea565b91505092915050565b6000620003686200037b565b905062000376828262000427565b919050565b6000604051905090565b600067ffffffffffffffff821115620003a357620003a26200048c565b5b620003ae82620004bb565b9050602081019050919050565b60005b83811015620003db578082015181840152602081019050620003be565b83811115620003eb576000848401525b50505050565b600060028204905060018216806200040a57607f821691505b602082108114156200042157620004206200045d565b5b50919050565b6200043282620004bb565b810181811067ffffffffffffffff821117156200045457620004536200048c565b5b80604052505050565b7f4e487b7100000000000000000000000000000000000000000000000000000000600052602260045260246000fd5b7f4e487b7100000000000000000000000000000000000000000000000000000000600052604160045260246000fd5b6000601f19601f8301169050919050565b613c9380620004dc6000396000f3fe6080604052600436106101855760003560e01c80635f769621116100d1578063a035b1fe1161008a578063c87b56dd11610064578063c87b56dd14610557578063cfc86f7b14610594578063e985e9c5146105bf578063f2fde38b146105fc5761018c565b8063a035b1fe146104da578063a22cb46514610505578063b88d4fde1461052e5761018c565b80635f769621146103c85780636352211e146103f357806370a0823114610430578063715018a61461046d5780638da5cb5b1461048457806395d89b41146104af5761018c565b806316c61ccc1161013e5780632f745c59116101185780632f745c591461030e5780633ccfd60b1461034b57806342842e0e146103625780634f6ccce71461038b5761018c565b806316c61ccc1461028f57806318160ddd146102ba57806323b872dd146102e55761018c565b806301ffc9a71461018e57806306fdde03146101cb578063081812fc146101f6578063095ea7b3146102335780631249c58b1461025c57806316c38b3c146102665761018c565b3661018c57005b005b34801561019a57600080fd5b506101b560048036038101906101b09190612bb8565b610625565b6040516101c291906130d3565b60405180910390f35b3480156101d757600080fd5b506101e061069f565b6040516101ed91906130ee565b60405180910390f35b34801561020257600080fd5b5061021d60048036038101906102189190612c0a565b610731565b60405161022a919061306c565b60405180910390f35b34801561023f57600080fd5b5061025a60048036038101906102559190612b53565b610777565b005b61026461088f565b005b34801561027257600080fd5b5061028d60048036038101906102889190612b8f565b610992565b005b34801561029b57600080fd5b506102a46109b7565b6040516102b191906130d3565b60405180910390f35b3480156102c657600080fd5b506102cf6109ca565b6040516102dc91906133b0565b60405180910390f35b3480156102f157600080fd5b5061030c60048036038101906103079190612a4d565b6109d7565b005b34801561031a57600080fd5b5061033560048036038101906103309190612b53565b610a37565b60405161034291906133b0565b60405180910390f35b34801561035757600080fd5b50610360610adc565b005b34801561036e57600080fd5b5061038960048036038101906103849190612a4d565b610ba6565b005b34801561039757600080fd5b506103b260048036038101906103ad9190612c0a565b610bc6565b6040516103bf91906133b0565b60405180910390f35b3480156103d457600080fd5b506103dd610c5d565b6040516103ea91906133b0565b60405180910390f35b3480156103ff57600080fd5b5061041a60048036038101906104159190612c0a565b610c63565b604051610427919061306c565b60405180910390f35b34801561043c57600080fd5b50610457600480360381019061045291906129e8565b610cea565b60405161046491906133b0565b60405180910390f35b34801561047957600080fd5b50610482610da2565b005b34801561049057600080fd5b50610499610db6565b6040516104a6919061306c565b60405180910390f35b3480156104bb57600080fd5b506104c4610de0565b6040516104d191906130ee565b60405180910390f35b3480156104e657600080fd5b506104ef610e72565b6040516104fc91906133b0565b60405180910390f35b34801561051157600080fd5b5061052c60048036038101906105279190612b17565b610e78565b005b34801561053a57600080fd5b5061055560048036038101906105509190612a9c565b610e8e565b005b34801561056357600080fd5b5061057e60048036038101906105799190612c0a565b610ef0565b60405161058b91906130ee565b60405180910390f35b3480156105a057600080fd5b506105a9610fbd565b6040516105b691906130ee565b60405180910390f35b3480156105cb57600080fd5b506105e660048036038101906105e19190612a11565b61104b565b6040516105f391906130d3565b60405180910390f35b34801561060857600080fd5b50610623600480360381019061061e91906129e8565b6110df565b005b60007f780e9d63000000000000000000000000000000000000000000000000000000007bffffffffffffffffffffffffffffffffffffffffffffffffffffffff1916827bffffffffffffffffffffffffffffffffffffffffffffffffffffffff19161480610698575061069782611163565b5b9050919050565b6060600080546106ae906135af565b80601f01602080910402602001604051908101604052809291908181526020018280546106da906135af565b80156107275780601f106106fc57610100808354040283529160200191610727565b820191906000526020600020905b81548152906001019060200180831161070a57829003601f168201915b5050505050905090565b600061073c82611245565b6004600083815260200190815260200160002060009054906101000a900473ffffffffffffffffffffffffffffffffffffffff169050919050565b600061078282610c63565b90508073ffffffffffffffffffffffffffffffffffffffff168373ffffffffffffffffffffffffffffffffffffffff1614156107f3576040517f08c379a00000000000000000000000000000000000000000000000000000000081526004016107ea906132f0565b60405180910390fd5b8073ffffffffffffffffffffffffffffffffffffffff16610812611290565b73ffffffffffffffffffffffffffffffffffffffff16148061084157506108408161083b611290565b61104b565b5b610880576040517f08c379a000000000000000000000000000000000000000000000000000000000815260040161087790613330565b60405180910390fd5b61088a8383611298565b505050565b600d60009054906101000a900460ff16156108df576040517f08c379a00000000000000000000000000000000000000000000000000000000081526004016108d6906132b0565b60405180910390fd5b600f54600c5410610925576040517f08c379a000000000000000000000000000000000000000000000000000000000815260040161091c90613370565b60405180910390fd5b600e5434101561096a576040517f08c379a000000000000000000000000000000000000000000000000000000000815260040161096190613310565b60405180910390fd5b6001600c600082825461097d919061346f565b9250508190555061099033600c54611351565b565b61099a61136f565b80600d60006101000a81548160ff02191690831515021790555050565b600d60009054906101000a900460ff1681565b6000600880549050905090565b6109e86109e2611290565b826113ed565b610a27576040517f08c379a0000000000000000000000000000000000000000000000000000000008152600401610a1e90613110565b60405180910390fd5b610a32838383611482565b505050565b6000610a4283610cea565b8210610a83576040517f08c379a0000000000000000000000000000000000000000000000000000000008152600401610a7a90613130565b60405180910390fd5b600660008473ffffffffffffffffffffffffffffffffffffffff1673ffffffffffffffffffffffffffffffffffffffff168152602001908152602001600020600083815260200190815260200160002054905092915050565b610ae461136f565b6000610aee610db6565b9050600047905060008273ffffffffffffffffffffffffffffffffffffffff1682604051610b1b90613057565b60006040518083038185875af1925050503d8060008114610b58576040519150601f19603f3d011682016040523d82523d6000602084013e610b5d565b606091505b5050905080610ba1576040517f08c379a0000000000000000000000000000000000000000000000000000000008152600401610b98906131d0565b60405180910390fd5b505050565b610bc183838360405180602001604052806000815250610e8e565b505050565b6000610bd06109ca565b8210610c11576040517f08c379a0000000000000000000000000000000000000000000000000000000008152600401610c0890613350565b60405180910390fd5b60088281548110610c4b577f4e487b7100000000000000000000000000000000000000000000000000000000600052603260045260246000fd5b90600052602060002001549050919050565b600f5481565b600080610c6f8361177c565b9050600073ffffffffffffffffffffffffffffffffffffffff168173ffffffffffffffffffffffffffffffffffffffff161415610ce1576040517f08c379a0000000000000000000000000000000000000000000000000000000008152600401610cd8906132d0565b60405180910390fd5b80915050919050565b60008073ffffffffffffffffffffffffffffffffffffffff168273ffffffffffffffffffffffffffffffffffffffff161415610d5b576040517f08c379a0000000000000000000000000000000000000000000000000000000008152600401610d5290613230565b60405180910390fd5b600360008373ffffffffffffffffffffffffffffffffffffffff1673ffffffffffffffffffffffffffffffffffffffff168152602001908152602001600020549050919050565b610daa61136f565b610db460006117b9565b565b6000600a60009054906101000a900473ffffffffffffffffffffffffffffffffffffffff16905090565b606060018054610def906135af565b80601f0160208091040260200160405190810160405280929190818152602001828054610e1b906135af565b8015610e685780601f10610e3d57610100808354040283529160200191610e68565b820191906000526020600020905b815481529060010190602001808311610e4b57829003601f168201915b5050505050905090565b600e5481565b610e8a610e83611290565b838361187f565b5050565b610e9f610e99611290565b836113ed565b610ede576040517f08c379a0000000000000000000000000000000000000000000000000000000008152600401610ed590613110565b60405180910390fd5b610eea848484846119ec565b50505050565b6060610efb82611a48565b610f3a576040517f08c379a0000000000000000000000000000000000000000000000000000000008152600401610f3190613290565b60405180910390fd5b6000610f44611a89565b90506000815111610f8a576040518060400160405280600181526020017f2000000000000000000000000000000000000000000000000000000000000000815250610fb5565b80610f9484611b1b565b604051602001610fa5929190613028565b6040516020818303038152906040525b915050919050565b600b8054610fca906135af565b80601f0160208091040260200160405190810160405280929190818152602001828054610ff6906135af565b80156110435780601f1061101857610100808354040283529160200191611043565b820191906000526020600020905b81548152906001019060200180831161102657829003601f168201915b505050505081565b6000600560008473ffffffffffffffffffffffffffffffffffffffff1673ffffffffffffffffffffffffffffffffffffffff16815260200190815260200160002060008373ffffffffffffffffffffffffffffffffffffffff1673ffffffffffffffffffffffffffffffffffffffff16815260200190815260200160002060009054906101000a900460ff16905092915050565b6110e761136f565b600073ffffffffffffffffffffffffffffffffffffffff168173ffffffffffffffffffffffffffffffffffffffff161415611157576040517f08c379a000000000000000000000000000000000000000000000000000000000815260040161114e90613170565b60405180910390fd5b611160816117b9565b50565b60007f80ac58cd000000000000000000000000000000000000000000000000000000007bffffffffffffffffffffffffffffffffffffffffffffffffffffffff1916827bffffffffffffffffffffffffffffffffffffffffffffffffffffffff1916148061122e57507f5b5e139f000000000000000000000000000000000000000000000000000000007bffffffffffffffffffffffffffffffffffffffffffffffffffffffff1916827bffffffffffffffffffffffffffffffffffffffffffffffffffffffff1916145b8061123e575061123d82611c3f565b5b9050919050565b61124e81611a48565b61128d576040517f08c379a0000000000000000000000000000000000000000000000000000000008152600401611284906132d0565b60405180910390fd5b50565b600033905090565b816004600083815260200190815260200160002060006101000a81548173ffffffffffffffffffffffffffffffffffffffff021916908373ffffffffffffffffffffffffffffffffffffffff160217905550808273ffffffffffffffffffffffffffffffffffffffff1661130b83610c63565b73ffffffffffffffffffffffffffffffffffffffff167f8c5be1e5ebec7d5bd14f71427d1e84f3dd0314c0f7b2291e5b200ac8c7c3b92560405160405180910390a45050565b61136b828260405180602001604052806000815250611ca9565b5050565b611377611290565b73ffffffffffffffffffffffffffffffffffffffff16611395610db6565b73ffffffffffffffffffffffffffffffffffffffff16146113eb576040517f08c379a00000000000000000000000000000000000000000000000000000000081526004016113e290613270565b60405180910390fd5b565b6000806113f983610c63565b90508073ffffffffffffffffffffffffffffffffffffffff168473ffffffffffffffffffffffffffffffffffffffff16148061143b575061143a818561104b565b5b8061147957508373ffffffffffffffffffffffffffffffffffffffff1661146184610731565b73ffffffffffffffffffffffffffffffffffffffff16145b91505092915050565b8273ffffffffffffffffffffffffffffffffffffffff166114a282610c63565b73ffffffffffffffffffffffffffffffffffffffff16146114f8576040517f08c379a00000000000000000000000000000000000000000000000000000000081526004016114ef90613190565b60405180910390fd5b600073ffffffffffffffffffffffffffffffffffffffff168273ffffffffffffffffffffffffffffffffffffffff161415611568576040517f08c379a000000000000000000000000000000000000000000000000000000000815260040161155f906131f0565b60405180910390fd5b6115758383836001611d04565b8273ffffffffffffffffffffffffffffffffffffffff1661159582610c63565b73ffffffffffffffffffffffffffffffffffffffff16146115eb576040517f08c379a00000000000000000000000000000000000000000000000000000000081526004016115e290613190565b60405180910390fd5b6004600082815260200190815260200160002060006101000a81549073ffffffffffffffffffffffffffffffffffffffff02191690556001600360008573ffffffffffffffffffffffffffffffffffffffff1673ffffffffffffffffffffffffffffffffffffffff168152602001908152602001600020600082825403925050819055506001600360008473ffffffffffffffffffffffffffffffffffffffff1673ffffffffffffffffffffffffffffffffffffffff16815260200190815260200160002060008282540192505081905550816002600083815260200190815260200160002060006101000a81548173ffffffffffffffffffffffffffffffffffffffff021916908373ffffffffffffffffffffffffffffffffffffffff160217905550808273ffffffffffffffffffffffffffffffffffffffff168473ffffffffffffffffffffffffffffffffffffffff167fddf252ad1be2c89b69c2b068fc378daa952ba7f163c4a11628f55a4df523b3ef60405160405180910390a46117778383836001611e64565b505050565b60006002600083815260200190815260200160002060009054906101000a900473ffffffffffffffffffffffffffffffffffffffff169050919050565b6000600a60009054906101000a900473ffffffffffffffffffffffffffffffffffffffff16905081600a60006101000a81548173ffffffffffffffffffffffffffffffffffffffff021916908373ffffffffffffffffffffffffffffffffffffffff1602179055508173ffffffffffffffffffffffffffffffffffffffff168173ffffffffffffffffffffffffffffffffffffffff167f8be0079c531659141344cd1fd0a4f28419497f9722a3daafe3b4186f6b6457e060405160405180910390a35050565b8173ffffffffffffffffffffffffffffffffffffffff168373ffffffffffffffffffffffffffffffffffffffff1614156118ee576040517f08c379a00000000000000000000000000000000000000000000000000000000081526004016118e590613210565b60405180910390fd5b80600560008573ffffffffffffffffffffffffffffffffffffffff1673ffffffffffffffffffffffffffffffffffffffff16815260200190815260200160002060008473ffffffffffffffffffffffffffffffffffffffff1673ffffffffffffffffffffffffffffffffffffffff16815260200190815260200160002060006101000a81548160ff0219169083151502179055508173ffffffffffffffffffffffffffffffffffffffff168373ffffffffffffffffffffffffffffffffffffffff167f17307eab39ab6107e8899845ad3d59bd9653f200f220920489ca2b5937696c31836040516119df91906130d3565b60405180910390a3505050565b6119f7848484611482565b611a0384848484611e6a565b611a42576040517f08c379a0000000000000000000000000000000000000000000000000000000008152600401611a3990613150565b60405180910390fd5b50505050565b60008073ffffffffffffffffffffffffffffffffffffffff16611a6a8361177c565b73ffffffffffffffffffffffffffffffffffffffff1614159050919050565b6060600b8054611a98906135af565b80601f0160208091040260200160405190810160405280929190818152602001828054611ac4906135af565b8015611b115780601f10611ae657610100808354040283529160200191611b11565b820191906000526020600020905b815481529060010190602001808311611af457829003601f168201915b5050505050905090565b606060006001611b2a84612001565b01905060008167ffffffffffffffff811115611b6f577f4e487b7100000000000000000000000000000000000000000000000000000000600052604160045260246000fd5b6040519080825280601f01601f191660200182016040528015611ba15781602001600182028036833780820191505090505b509050600082602001820190505b600115611c34578080600190039150507f3031323334353637383961626364656600000000000000000000000000000000600a86061a8153600a8581611c1e577f4e487b7100000000000000000000000000000000000000000000000000000000600052601260045260246000fd5b0494506000851415611c2f57611c34565b611baf565b819350505050919050565b60007f01ffc9a7000000000000000000000000000000000000000000000000000000007bffffffffffffffffffffffffffffffffffffffffffffffffffffffff1916827bffffffffffffffffffffffffffffffffffffffffffffffffffffffff1916149050919050565b611cb38383612238565b611cc06000848484611e6a565b611cff576040517f08c379a0000000000000000000000000000000000000000000000000000000008152600401611cf690613150565b60405180910390fd5b505050565b611d1084848484612456565b6001811115611d54576040517f08c379a0000000000000000000000000000000000000000000000000000000008152600401611d4b90613390565b60405180910390fd5b6000829050600073ffffffffffffffffffffffffffffffffffffffff168573ffffffffffffffffffffffffffffffffffffffff161415611d9c57611d978161257c565b611ddb565b8373ffffffffffffffffffffffffffffffffffffffff168573ffffffffffffffffffffffffffffffffffffffff1614611dda57611dd985826125c5565b5b5b600073ffffffffffffffffffffffffffffffffffffffff168473ffffffffffffffffffffffffffffffffffffffff161415611e1e57611e1981612732565b611e5d565b8473ffffffffffffffffffffffffffffffffffffffff168473ffffffffffffffffffffffffffffffffffffffff1614611e5c57611e5b8482612875565b5b5b5050505050565b50505050565b6000611e8b8473ffffffffffffffffffffffffffffffffffffffff166128f4565b15611ff4578373ffffffffffffffffffffffffffffffffffffffff1663150b7a02611eb4611290565b8786866040518563ffffffff1660e01b8152600401611ed69493929190613087565b602060405180830381600087803b158015611ef057600080fd5b505af1925050508015611f2157506040513d601f19601f82011682018060405250810190611f1e9190612be1565b60015b611fa4573d8060008114611f51576040519150601f19603f3d011682016040523d82523d6000602084013e611f56565b606091505b50600081511415611f9c576040517f08c379a0000000000000000000000000000000000000000000000000000000008152600401611f9390613150565b60405180910390fd5b805181602001fd5b63150b7a0260e01b7bffffffffffffffffffffffffffffffffffffffffffffffffffffffff1916817bffffffffffffffffffffffffffffffffffffffffffffffffffffffff191614915050611ff9565b600190505b949350505050565b600080600090507a184f03e93ff9f4daa797ed6e38ed64bf6a1f0100000000000000008310612085577a184f03e93ff9f4daa797ed6e38ed64bf6a1f010000000000000000838161207b577f4e487b7100000000000000000000000000000000000000000000000000000000600052601260045260246000fd5b0492506040810190505b6d04ee2d6d415b85acef810000000083106120e8576d04ee2d6d415b85acef810000000083816120de577f4e487b7100000000000000000000000000000000000000000000000000000000600052601260045260246000fd5b0492506020810190505b662386f26fc10000831061213d57662386f26fc100008381612133577f4e487b7100000000000000000000000000000000000000000000000000000000600052601260045260246000fd5b0492506010810190505b6305f5e100831061218c576305f5e1008381612182577f4e487b7100000000000000000000000000000000000000000000000000000000600052601260045260246000fd5b0492506008810190505b61271083106121d75761271083816121cd577f4e487b7100000000000000000000000000000000000000000000000000000000600052601260045260246000fd5b0492506004810190505b606483106122205760648381612216577f4e487b7100000000000000000000000000000000000000000000000000000000600052601260045260246000fd5b0492506002810190505b600a831061222f576001810190505b80915050919050565b600073ffffffffffffffffffffffffffffffffffffffff168273ffffffffffffffffffffffffffffffffffffffff1614156122a8576040517f08c379a000000000000000000000000000000000000000000000000000000000815260040161229f90613250565b60405180910390fd5b6122b181611a48565b156122f1576040517f08c379a00000000000000000000000000000000000000000000000000000000081526004016122e8906131b0565b60405180910390fd5b6122ff600083836001611d04565b61230881611a48565b15612348576040517f08c379a000000000000000000000000000000000000000000000000000000000815260040161233f906131b0565b60405180910390fd5b6001600360008473ffffffffffffffffffffffffffffffffffffffff1673ffffffffffffffffffffffffffffffffffffffff16815260200190815260200160002060008282540192505081905550816002600083815260200190815260200160002060006101000a81548173ffffffffffffffffffffffffffffffffffffffff021916908373ffffffffffffffffffffffffffffffffffffffff160217905550808273ffffffffffffffffffffffffffffffffffffffff16600073ffffffffffffffffffffffffffffffffffffffff167fddf252ad1be2c89b69c2b068fc378daa952ba7f163c4a11628f55a4df523b3ef60405160405180910390a4612452600083836001611e64565b5050565b600181111561257657600073ffffffffffffffffffffffffffffffffffffffff168473ffffffffffffffffffffffffffffffffffffffff16146124ea5780600360008673ffffffffffffffffffffffffffffffffffffffff1673ffffffffffffffffffffffffffffffffffffffff16815260200190815260200160002060008282546124e291906134c5565b925050819055505b600073ffffffffffffffffffffffffffffffffffffffff168373ffffffffffffffffffffffffffffffffffffffff16146125755780600360008573ffffffffffffffffffffffffffffffffffffffff1673ffffffffffffffffffffffffffffffffffffffff168152602001908152602001600020600082825461256d919061346f565b925050819055505b5b50505050565b6008805490506009600083815260200190815260200160002081905550600881908060018154018082558091505060019003906000526020600020016000909190919091505550565b600060016125d284610cea565b6125dc91906134c5565b90506000600760008481526020019081526020016000205490508181146126c1576000600660008673ffffffffffffffffffffffffffffffffffffffff1673ffffffffffffffffffffffffffffffffffffffff168152602001908152602001600020600084815260200190815260200160002054905080600660008773ffffffffffffffffffffffffffffffffffffffff1673ffffffffffffffffffffffffffffffffffffffff168152602001908152602001600020600084815260200190815260200160002081905550816007600083815260200190815260200160002081905550505b6007600084815260200190815260200160002060009055600660008573ffffffffffffffffffffffffffffffffffffffff1673ffffffffffffffffffffffffffffffffffffffff16815260200190815260200160002060008381526020019081526020016000206000905550505050565b6000600160088054905061274691906134c5565b905060006009600084815260200190815260200160002054905060006008838154811061279c577f4e487b7100000000000000000000000000000000000000000000000000000000600052603260045260246000fd5b9060005260206000200154905080600883815481106127e4577f4e487b7100000000000000000000000000000000000000000000000000000000600052603260045260246000fd5b906000526020600020018190555081600960008381526020019081526020016000208190555060096000858152602001908152602001600020600090556008805480612859577f4e487b7100000000000000000000000000000000000000000000000000000000600052603160045260246000fd5b6001900381819060005260206000200160009055905550505050565b600061288083610cea565b905081600660008573ffffffffffffffffffffffffffffffffffffffff1673ffffffffffffffffffffffffffffffffffffffff168152602001908152602001600020600083815260200190815260200160002081905550806007600084815260200190815260200160002081905550505050565b6000808273ffffffffffffffffffffffffffffffffffffffff163b119050919050565b600061292a612925846133f0565b6133cb565b90508281526020810184848401111561294257600080fd5b61294d84828561356d565b509392505050565b60008135905061296481613c01565b92915050565b60008135905061297981613c18565b92915050565b60008135905061298e81613c2f565b92915050565b6000815190506129a381613c2f565b92915050565b600082601f8301126129ba57600080fd5b81356129ca848260208601612917565b91505092915050565b6000813590506129e281613c46565b92915050565b6000602082840312156129fa57600080fd5b6000612a0884828501612955565b91505092915050565b60008060408385031215612a2457600080fd5b6000612a3285828601612955565b9250506020612a4385828601612955565b9150509250929050565b600080600060608486031215612a6257600080fd5b6000612a7086828701612955565b9350506020612a8186828701612955565b9250506040612a92868287016129d3565b9150509250925092565b60008060008060808587031215612ab257600080fd5b6000612ac087828801612955565b9450506020612ad187828801612955565b9350506040612ae2878288016129d3565b925050606085013567ffffffffffffffff811115612aff57600080fd5b612b0b878288016129a9565b91505092959194509250565b60008060408385031215612b2a57600080fd5b6000612b3885828601612955565b9250506020612b498582860161296a565b9150509250929050565b60008060408385031215612b6657600080fd5b6000612b7485828601612955565b9250506020612b85858286016129d3565b9150509250929050565b600060208284031215612ba157600080fd5b6000612baf8482850161296a565b91505092915050565b600060208284031215612bca57600080fd5b6000612bd88482850161297f565b91505092915050565b600060208284031215612bf357600080fd5b6000612c0184828501612994565b91505092915050565b600060208284031215612c1c57600080fd5b6000612c2a848285016129d3565b91505092915050565b612c3c816134f9565b82525050565b612c4b8161350b565b82525050565b6000612c5c82613421565b612c668185613437565b9350612c7681856020860161357c565b612c7f8161369f565b840191505092915050565b6000612c958261342c565b612c9f8185613453565b9350612caf81856020860161357c565b612cb88161369f565b840191505092915050565b6000612cce8261342c565b612cd88185613464565b9350612ce881856020860161357c565b80840191505092915050565b6000612d01602d83613453565b9150612d0c826136b0565b604082019050919050565b6000612d24602b83613453565b9150612d2f826136ff565b604082019050919050565b6000612d47603283613453565b9150612d528261374e565b604082019050919050565b6000612d6a602683613453565b9150612d758261379d565b604082019050919050565b6000612d8d602583613453565b9150612d98826137ec565b604082019050919050565b6000612db0601c83613453565b9150612dbb8261383b565b602082019050919050565b6000612dd3601483613453565b9150612dde82613864565b602082019050919050565b6000612df6602483613453565b9150612e018261388d565b604082019050919050565b6000612e19601983613453565b9150612e24826138dc565b602082019050919050565b6000612e3c602983613453565b9150612e4782613905565b604082019050919050565b6000612e5f602083613453565b9150612e6a82613954565b602082019050919050565b6000612e82600583613464565b9150612e8d8261397d565b600582019050919050565b6000612ea5602083613453565b9150612eb0826139a6565b602082019050919050565b6000612ec8602f83613453565b9150612ed3826139cf565b604082019050919050565b6000612eeb601983613453565b9150612ef682613a1e565b602082019050919050565b6000612f0e601883613453565b9150612f1982613a47565b602082019050919050565b6000612f31602183613453565b9150612f3c82613a70565b604082019050919050565b6000612f54601983613453565b9150612f5f82613abf565b602082019050919050565b6000612f77600083613448565b9150612f8282613ae8565b600082019050919050565b6000612f9a603d83613453565b9150612fa582613aeb565b604082019050919050565b6000612fbd602c83613453565b9150612fc882613b3a565b604082019050919050565b6000612fe0601e83613453565b9150612feb82613b89565b602082019050919050565b6000613003603583613453565b915061300e82613bb2565b604082019050919050565b61302281613563565b82525050565b60006130348285612cc3565b91506130408284612cc3565b915061304b82612e75565b91508190509392505050565b600061306282612f6a565b9150819050919050565b60006020820190506130816000830184612c33565b92915050565b600060808201905061309c6000830187612c33565b6130a96020830186612c33565b6130b66040830185613019565b81810360608301526130c88184612c51565b905095945050505050565b60006020820190506130e86000830184612c42565b92915050565b600060208201905081810360008301526131088184612c8a565b905092915050565b6000602082019050818103600083015261312981612cf4565b9050919050565b6000602082019050818103600083015261314981612d17565b9050919050565b6000602082019050818103600083015261316981612d3a565b9050919050565b6000602082019050818103600083015261318981612d5d565b9050919050565b600060208201905081810360008301526131a981612d80565b9050919050565b600060208201905081810360008301526131c981612da3565b9050919050565b600060208201905081810360008301526131e981612dc6565b9050919050565b6000602082019050818103600083015261320981612de9565b9050919050565b6000602082019050818103600083015261322981612e0c565b9050919050565b6000602082019050818103600083015261324981612e2f565b9050919050565b6000602082019050818103600083015261326981612e52565b9050919050565b6000602082019050818103600083015261328981612e98565b9050919050565b600060208201905081810360008301526132a981612ebb565b9050919050565b600060208201905081810360008301526132c981612ede565b9050919050565b600060208201905081810360008301526132e981612f01565b9050919050565b6000602082019050818103600083015261330981612f24565b9050919050565b6000602082019050818103600083015261332981612f47565b9050919050565b6000602082019050818103600083015261334981612f8d565b9050919050565b6000602082019050818103600083015261336981612fb0565b9050919050565b6000602082019050818103600083015261338981612fd3565b9050919050565b600060208201905081810360008301526133a981612ff6565b9050919050565b60006020820190506133c56000830184613019565b92915050565b60006133d56133e6565b90506133e182826135e1565b919050565b6000604051905090565b600067ffffffffffffffff82111561340b5761340a613670565b5b6134148261369f565b9050602081019050919050565b600081519050919050565b600081519050919050565b600082825260208201905092915050565b600081905092915050565b600082825260208201905092915050565b600081905092915050565b600061347a82613563565b915061348583613563565b9250827fffffffffffffffffffffffffffffffffffffffffffffffffffffffffffffffff038211156134ba576134b9613612565b5b828201905092915050565b60006134d082613563565b91506134db83613563565b9250828210156134ee576134ed613612565b5b828203905092915050565b600061350482613543565b9050919050565b60008115159050919050565b60007fffffffff0000000000000000000000000000000000000000000000000000000082169050919050565b600073ffffffffffffffffffffffffffffffffffffffff82169050919050565b6000819050919050565b82818337600083830152505050565b60005b8381101561359a57808201518184015260208101905061357f565b838111156135a9576000848401525b50505050565b600060028204905060018216806135c757607f821691505b602082108114156135db576135da613641565b5b50919050565b6135ea8261369f565b810181811067ffffffffffffffff8211171561360957613608613670565b5b80604052505050565b7f4e487b7100000000000000000000000000000000000000000000000000000000600052601160045260246000fd5b7f4e487b7100000000000000000000000000000000000000000000000000000000600052602260045260246000fd5b7f4e487b7100000000000000000000000000000000000000000000000000000000600052604160045260246000fd5b6000601f19601f8301169050919050565b7f4552433732313a2063616c6c6572206973206e6f7420746f6b656e206f776e6560008201527f72206f7220617070726f76656400000000000000000000000000000000000000602082015250565b7f455243373231456e756d657261626c653a206f776e657220696e646578206f7560008201527f74206f6620626f756e6473000000000000000000000000000000000000000000602082015250565b7f4552433732313a207472616e7366657220746f206e6f6e20455243373231526560008201527f63656976657220696d706c656d656e7465720000000000000000000000000000602082015250565b7f4f776e61626c653a206e6577206f776e657220697320746865207a65726f206160008201527f6464726573730000000000000000000000000000000000000000000000000000602082015250565b7f4552433732313a207472616e736665722066726f6d20696e636f72726563742060008201527f6f776e6572000000000000000000000000000000000000000000000000000000602082015250565b7f4552433732313a20746f6b656e20616c7265616479206d696e74656400000000600082015250565b7f4661696c656420746f2073656e64204574686572000000000000000000000000600082015250565b7f4552433732313a207472616e7366657220746f20746865207a65726f2061646460008201527f7265737300000000000000000000000000000000000000000000000000000000602082015250565b7f4552433732313a20617070726f766520746f2063616c6c657200000000000000600082015250565b7f4552433732313a2061646472657373207a65726f206973206e6f74206120766160008201527f6c6964206f776e65720000000000000000000000000000000000000000000000602082015250565b7f4552433732313a206d696e7420746f20746865207a65726f2061646472657373600082015250565b7f2e6a736f6e000000000000000000000000000000000000000000000000000000600082015250565b7f4f776e61626c653a2063616c6c6572206973206e6f7420746865206f776e6572600082015250565b7f4552433732314d657461646174613a2055524920717565727920666f72206e6f60008201527f6e6578697374656e7420746f6b656e0000000000000000000000000000000000602082015250565b7f436f6e74726163742063757272656e746c792070617573656400000000000000600082015250565b7f4552433732313a20696e76616c696420746f6b656e2049440000000000000000600082015250565b7f4552433732313a20617070726f76616c20746f2063757272656e74206f776e6560008201527f7200000000000000000000000000000000000000000000000000000000000000602082015250565b7f45746865722073656e74206973206e6f7420636f727265637400000000000000600082015250565b50565b7f4552433732313a20617070726f76652063616c6c6572206973206e6f7420746f60008201527f6b656e206f776e6572206f7220617070726f76656420666f7220616c6c000000602082015250565b7f455243373231456e756d657261626c653a20676c6f62616c20696e646578206f60008201527f7574206f6620626f756e64730000000000000000000000000000000000000000602082015250565b7f457863656564206d6178696d756d204c573350756e6b7320737570706c790000600082015250565b7f455243373231456e756d657261626c653a20636f6e736563757469766520747260008201527f616e7366657273206e6f7420737570706f727465640000000000000000000000602082015250565b613c0a816134f9565b8114613c1557600080fd5b50565b613c218161350b565b8114613c2c57600080fd5b50565b613c3881613517565b8114613c4357600080fd5b50565b613c4f81613563565b8114613c5a57600080fd5b5056fea2646970667358221220680df21926c9b4cf268b22b29f92ad7c6ef0b0b9d7cd3619e52fadba27b1ba6064736f6c63430008040033",
  "linkReferences": {},
  "deployedLinkReferences": {}
}